{
  "contractName": "USDT",
  "abi": [
    {
      "inputs": [
        {
          "internalType": "uint256",
          "name": "initialSupply",
          "type": "uint256"
        }
      ],
      "stateMutability": "nonpayable",
      "type": "constructor"
    },
    {
      "anonymous": false,
      "inputs": [
        {
          "indexed": true,
          "internalType": "address",
          "name": "owner",
          "type": "address"
        },
        {
          "indexed": true,
          "internalType": "address",
          "name": "spender",
          "type": "address"
        },
        {
          "indexed": false,
          "internalType": "uint256",
          "name": "value",
          "type": "uint256"
        }
      ],
      "name": "Approval",
      "type": "event"
    },
    {
      "anonymous": false,
      "inputs": [
        {
          "indexed": false,
          "internalType": "uint256",
          "name": "amount",
          "type": "uint256"
        }
      ],
      "name": "TokensBurned",
      "type": "event"
    },
    {
      "anonymous": false,
      "inputs": [
        {
          "indexed": true,
          "internalType": "address",
          "name": "from",
          "type": "address"
        },
        {
          "indexed": true,
          "internalType": "address",
          "name": "to",
          "type": "address"
        },
        {
          "indexed": false,
          "internalType": "uint256",
          "name": "value",
          "type": "uint256"
        }
      ],
      "name": "Transfer",
      "type": "event"
    },
    {
      "inputs": [
        {
          "internalType": "address",
          "name": "owner",
          "type": "address"
        },
        {
          "internalType": "address",
          "name": "spender",
          "type": "address"
        }
      ],
      "name": "allowance",
      "outputs": [
        {
          "internalType": "uint256",
          "name": "",
          "type": "uint256"
        }
      ],
      "stateMutability": "view",
      "type": "function"
    },
    {
      "inputs": [
        {
          "internalType": "address",
          "name": "spender",
          "type": "address"
        },
        {
          "internalType": "uint256",
          "name": "amount",
          "type": "uint256"
        }
      ],
      "name": "approve",
      "outputs": [
        {
          "internalType": "bool",
          "name": "",
          "type": "bool"
        }
      ],
      "stateMutability": "nonpayable",
      "type": "function"
    },
    {
      "inputs": [
        {
          "internalType": "address",
          "name": "account",
          "type": "address"
        }
      ],
      "name": "balanceOf",
      "outputs": [
        {
          "internalType": "uint256",
          "name": "",
          "type": "uint256"
        }
      ],
      "stateMutability": "view",
      "type": "function"
    },
    {
      "inputs": [
        {
          "internalType": "uint256",
          "name": "amount",
          "type": "uint256"
        }
      ],
      "name": "burn",
      "outputs": [],
      "stateMutability": "nonpayable",
      "type": "function"
    },
    {
      "inputs": [],
      "name": "decimals",
      "outputs": [
        {
          "internalType": "uint8",
          "name": "",
          "type": "uint8"
        }
      ],
      "stateMutability": "view",
      "type": "function"
    },
    {
      "inputs": [],
      "name": "name",
      "outputs": [
        {
          "internalType": "string",
          "name": "",
          "type": "string"
        }
      ],
      "stateMutability": "view",
      "type": "function"
    },
    {
      "inputs": [],
      "name": "symbol",
      "outputs": [
        {
          "internalType": "string",
          "name": "",
          "type": "string"
        }
      ],
      "stateMutability": "view",
      "type": "function"
    },
    {
      "inputs": [],
      "name": "totalSupply",
      "outputs": [
        {
          "internalType": "uint256",
          "name": "",
          "type": "uint256"
        }
      ],
      "stateMutability": "view",
      "type": "function"
    },
    {
      "inputs": [
        {
          "internalType": "address",
          "name": "recipient",
          "type": "address"
        },
        {
          "internalType": "uint256",
          "name": "amount",
          "type": "uint256"
        }
      ],
      "name": "transfer",
      "outputs": [
        {
          "internalType": "bool",
          "name": "",
          "type": "bool"
        }
      ],
      "stateMutability": "nonpayable",
      "type": "function"
    },
    {
      "inputs": [
        {
          "internalType": "address",
          "name": "sender",
          "type": "address"
        },
        {
          "internalType": "address",
          "name": "recipient",
          "type": "address"
        },
        {
          "internalType": "uint256",
          "name": "amount",
          "type": "uint256"
        }
      ],
      "name": "transferFrom",
      "outputs": [
        {
          "internalType": "bool",
          "name": "",
          "type": "bool"
        }
      ],
      "stateMutability": "nonpayable",
      "type": "function"
    }
  ],
  "bytecode": "0x60a060405234801562000010575f80fd5b50d380156200001d575f80fd5b50d280156200002a575f80fd5b506040516200183e3803806200183e83398181016040528101906200005091906200019b565b3373ffffffffffffffffffffffffffffffffffffffff1660808173ffffffffffffffffffffffffffffffffffffffff1681525050600660ff16600a62000097919062000348565b81620000a4919062000398565b5f819055505f5460015f60805173ffffffffffffffffffffffffffffffffffffffff1673ffffffffffffffffffffffffffffffffffffffff1681526020019081526020015f208190555060805173ffffffffffffffffffffffffffffffffffffffff165f73ffffffffffffffffffffffffffffffffffffffff167fddf252ad1be2c89b69c2b068fc378daa952ba7f163c4a11628f55a4df523b3ef5f54604051620001509190620003f3565b60405180910390a3506200040e565b5f80fd5b5f819050919050565b620001778162000163565b811462000182575f80fd5b50565b5f8151905062000195816200016c565b92915050565b5f60208284031215620001b357620001b26200015f565b5b5f620001c28482850162000185565b91505092915050565b7f4e487b71000000000000000000000000000000000000000000000000000000005f52601160045260245ffd5b5f8160011c9050919050565b5f808291508390505b600185111562000255578086048111156200022d576200022c620001cb565b5b60018516156200023d5780820291505b80810290506200024d85620001f8565b94506200020d565b94509492505050565b5f826200026f576001905062000341565b816200027e575f905062000341565b8160018114620002975760028114620002a257620002d8565b600191505062000341565b60ff841115620002b757620002b6620001cb565b5b8360020a915084821115620002d157620002d0620001cb565b5b5062000341565b5060208310610133831016604e8410600b8410161715620003125782820a9050838111156200030c576200030b620001cb565b5b62000341565b62000321848484600162000204565b925090508184048111156200033b576200033a620001cb565b5b81810290505b9392505050565b5f620003548262000163565b9150620003618362000163565b9250620003907fffffffffffffffffffffffffffffffffffffffffffffffffffffffffffffffff84846200025e565b905092915050565b5f620003a48262000163565b9150620003b18362000163565b9250828202620003c18162000163565b91508282048414831517620003db57620003da620001cb565b5b5092915050565b620003ed8162000163565b82525050565b5f602082019050620004085f830184620003e2565b92915050565b608051611409620004355f395f81816107660152818161083a01526108da01526114095ff3fe608060405234801561000f575f80fd5b50d3801561001b575f80fd5b50d28015610027575f80fd5b50600436106100b4575f3560e01c806342966c681161007c57806342966c681461017257806370a082311461018e57806395d89b41146101be578063a9059cbb146101dc578063dd62ed3e1461020c576100b4565b806306fdde03146100b8578063095ea7b3146100d657806318160ddd1461010657806323b872dd14610124578063313ce56714610154575b5f80fd5b6100c061023c565b6040516100cd9190610d27565b60405180910390f35b6100f060048036038101906100eb9190610e03565b610275565b6040516100fd9190610e5b565b60405180910390f35b61010e6103d0565b60405161011b9190610e83565b60405180910390f35b61013e60048036038101906101399190610e9c565b6103d8565b60405161014b9190610e5b565b60405180910390f35b61015c61075f565b6040516101699190610f07565b60405180910390f35b61018c60048036038101906101879190610f20565b610764565b005b6101a860048036038101906101a39190610f4b565b610998565b6040516101b59190610e83565b60405180910390f35b6101c66109de565b6040516101d39190610d27565b60405180910390f35b6101f660048036038101906101f19190610e03565b610a17565b6040516102039190610e5b565b60405180910390f35b61022660048036038101906102219190610f76565b610c1b565b6040516102339190610e83565b60405180910390f35b6040518060400160405280600a81526020017f546574686572205553440000000000000000000000000000000000000000000081525081565b5f8073ffffffffffffffffffffffffffffffffffffffff168373ffffffffffffffffffffffffffffffffffffffff16036102e4576040517f08c379a00000000000000000000000000000000000000000000000000000000081526004016102db90610ffe565b60405180910390fd5b8160025f3373ffffffffffffffffffffffffffffffffffffffff1673ffffffffffffffffffffffffffffffffffffffff1681526020019081526020015f205f8573ffffffffffffffffffffffffffffffffffffffff1673ffffffffffffffffffffffffffffffffffffffff1681526020019081526020015f20819055508273ffffffffffffffffffffffffffffffffffffffff163373ffffffffffffffffffffffffffffffffffffffff167f8c5be1e5ebec7d5bd14f71427d1e84f3dd0314c0f7b2291e5b200ac8c7c3b925846040516103be9190610e83565b60405180910390a36001905092915050565b5f8054905090565b5f8073ffffffffffffffffffffffffffffffffffffffff168473ffffffffffffffffffffffffffffffffffffffff161415801561044157505f73ffffffffffffffffffffffffffffffffffffffff168373ffffffffffffffffffffffffffffffffffffffff1614155b610480576040517f08c379a000000000000000000000000000000000000000000000000000000000815260040161047790611066565b60405180910390fd5b8160015f8673ffffffffffffffffffffffffffffffffffffffff1673ffffffffffffffffffffffffffffffffffffffff1681526020019081526020015f20541015610500576040517f08c379a00000000000000000000000000000000000000000000000000000000081526004016104f7906110ce565b60405180910390fd5b8160025f8673ffffffffffffffffffffffffffffffffffffffff1673ffffffffffffffffffffffffffffffffffffffff1681526020019081526020015f205f3373ffffffffffffffffffffffffffffffffffffffff1673ffffffffffffffffffffffffffffffffffffffff1681526020019081526020015f205410156105bb576040517f08c379a00000000000000000000000000000000000000000000000000000000081526004016105b290611136565b60405180910390fd5b8160015f8673ffffffffffffffffffffffffffffffffffffffff1673ffffffffffffffffffffffffffffffffffffffff1681526020019081526020015f205f8282546106079190611181565b925050819055508160015f8573ffffffffffffffffffffffffffffffffffffffff1673ffffffffffffffffffffffffffffffffffffffff1681526020019081526020015f205f82825461065a91906111b4565b925050819055508160025f8673ffffffffffffffffffffffffffffffffffffffff1673ffffffffffffffffffffffffffffffffffffffff1681526020019081526020015f205f3373ffffffffffffffffffffffffffffffffffffffff1673ffffffffffffffffffffffffffffffffffffffff1681526020019081526020015f205f8282546106e89190611181565b925050819055508273ffffffffffffffffffffffffffffffffffffffff168473ffffffffffffffffffffffffffffffffffffffff167fddf252ad1be2c89b69c2b068fc378daa952ba7f163c4a11628f55a4df523b3ef8460405161074c9190610e83565b60405180910390a3600190509392505050565b600681565b7f000000000000000000000000000000000000000000000000000000000000000073ffffffffffffffffffffffffffffffffffffffff163373ffffffffffffffffffffffffffffffffffffffff16146107f2576040517f08c379a00000000000000000000000000000000000000000000000000000000081526004016107e990611257565b60405180910390fd5b5f8111610834576040517f08c379a000000000000000000000000000000000000000000000000000000000815260040161082b906112bf565b60405180910390fd5b8060015f7f000000000000000000000000000000000000000000000000000000000000000073ffffffffffffffffffffffffffffffffffffffff1673ffffffffffffffffffffffffffffffffffffffff1681526020019081526020015f205410156108d4576040517f08c379a00000000000000000000000000000000000000000000000000000000081526004016108cb9061134d565b60405180910390fd5b8060015f7f000000000000000000000000000000000000000000000000000000000000000073ffffffffffffffffffffffffffffffffffffffff1673ffffffffffffffffffffffffffffffffffffffff1681526020019081526020015f205f8282546109409190611181565b92505081905550805f808282546109579190611181565b925050819055507f6ef4855b666dcc7884561072e4358b28dfe01feb1b7f4dcebc00e62d50394ac78160405161098d9190610e83565b60405180910390a150565b5f60015f8373ffffffffffffffffffffffffffffffffffffffff1673ffffffffffffffffffffffffffffffffffffffff1681526020019081526020015f20549050919050565b6040518060400160405280600481526020017f555344540000000000000000000000000000000000000000000000000000000081525081565b5f8073ffffffffffffffffffffffffffffffffffffffff168373ffffffffffffffffffffffffffffffffffffffff1603610a86576040517f08c379a0000000000000000000000000000000000000000000000000000000008152600401610a7d906113b5565b60405180910390fd5b8160015f3373ffffffffffffffffffffffffffffffffffffffff1673ffffffffffffffffffffffffffffffffffffffff1681526020019081526020015f20541015610b06576040517f08c379a0000000000000000000000000000000000000000000000000000000008152600401610afd906110ce565b60405180910390fd5b8160015f3373ffffffffffffffffffffffffffffffffffffffff1673ffffffffffffffffffffffffffffffffffffffff1681526020019081526020015f205f828254610b529190611181565b925050819055508160015f8573ffffffffffffffffffffffffffffffffffffffff1673ffffffffffffffffffffffffffffffffffffffff1681526020019081526020015f205f828254610ba591906111b4565b925050819055508273ffffffffffffffffffffffffffffffffffffffff163373ffffffffffffffffffffffffffffffffffffffff167fddf252ad1be2c89b69c2b068fc378daa952ba7f163c4a11628f55a4df523b3ef84604051610c099190610e83565b60405180910390a36001905092915050565b5f60025f8473ffffffffffffffffffffffffffffffffffffffff1673ffffffffffffffffffffffffffffffffffffffff1681526020019081526020015f205f8373ffffffffffffffffffffffffffffffffffffffff1673ffffffffffffffffffffffffffffffffffffffff1681526020019081526020015f2054905092915050565b5f81519050919050565b5f82825260208201905092915050565b5f5b83811015610cd4578082015181840152602081019050610cb9565b5f8484015250505050565b5f601f19601f8301169050919050565b5f610cf982610c9d565b610d038185610ca7565b9350610d13818560208601610cb7565b610d1c81610cdf565b840191505092915050565b5f6020820190508181035f830152610d3f8184610cef565b905092915050565b5f80fd5b5f74ffffffffffffffffffffffffffffffffffffffffff82169050919050565b610d7481610d4b565b8114610d7e575f80fd5b50565b5f73ffffffffffffffffffffffffffffffffffffffff82169050919050565b5f610daa82610d81565b9050919050565b5f81359050610dbf81610d6b565b610dc881610da0565b905092915050565b5f819050919050565b610de281610dd0565b8114610dec575f80fd5b50565b5f81359050610dfd81610dd9565b92915050565b5f8060408385031215610e1957610e18610d47565b5b5f610e2685828601610db1565b9250506020610e3785828601610def565b9150509250929050565b5f8115159050919050565b610e5581610e41565b82525050565b5f602082019050610e6e5f830184610e4c565b92915050565b610e7d81610dd0565b82525050565b5f602082019050610e965f830184610e74565b92915050565b5f805f60608486031215610eb357610eb2610d47565b5b5f610ec086828701610db1565b9350506020610ed186828701610db1565b9250506040610ee286828701610def565b9150509250925092565b5f60ff82169050919050565b610f0181610eec565b82525050565b5f602082019050610f1a5f830184610ef8565b92915050565b5f60208284031215610f3557610f34610d47565b5b5f610f4284828501610def565b91505092915050565b5f60208284031215610f6057610f5f610d47565b5b5f610f6d84828501610db1565b91505092915050565b5f8060408385031215610f8c57610f8b610d47565b5b5f610f9985828601610db1565b9250506020610faa85828601610db1565b9150509250929050565b7f5370656e646572206e6f6e2076616c69646f00000000000000000000000000005f82015250565b5f610fe8601283610ca7565b9150610ff382610fb4565b602082019050919050565b5f6020820190508181035f83015261101581610fdc565b9050919050565b7f496e646972697a7a6f206e6f6e2076616c69646f0000000000000000000000005f82015250565b5f611050601483610ca7565b915061105b8261101c565b602082019050919050565b5f6020820190508181035f83015261107d81611044565b9050919050565b7f53616c646f20696e73756666696369656e7465000000000000000000000000005f82015250565b5f6110b8601383610ca7565b91506110c382611084565b602082019050919050565b5f6020820190508181035f8301526110e5816110ac565b9050919050565b7f5370657361206e6f6e206175746f72697a7a61746100000000000000000000005f82015250565b5f611120601583610ca7565b915061112b826110ec565b602082019050919050565b5f6020820190508181035f83015261114d81611114565b9050919050565b7f4e487b71000000000000000000000000000000000000000000000000000000005f52601160045260245ffd5b5f61118b82610dd0565b915061119683610dd0565b92508282039050818111156111ae576111ad611154565b5b92915050565b5f6111be82610dd0565b91506111c983610dd0565b92508282019050808211156111e1576111e0611154565b5b92915050565b7f536f6c6f206c27616d6d696e6973747261746f72652070756f206573656775695f8201527f726520717565737461206f706572617a696f6e65000000000000000000000000602082015250565b5f611241603483610ca7565b915061124c826111e7565b604082019050919050565b5f6020820190508181035f83015261126e81611235565b9050919050565b7f4465766920627275636961726520616c6d656e6f203120746f6b656e000000005f82015250565b5f6112a9601c83610ca7565b91506112b482611275565b602082019050919050565b5f6020820190508181035f8301526112d68161129d565b9050919050565b7f546f6b656e20696e73756666696369656e746920706572206c612064697374725f8201527f757a696f6e650000000000000000000000000000000000000000000000000000602082015250565b5f611337602683610ca7565b9150611342826112dd565b604082019050919050565b5f6020820190508181035f8301526113648161132b565b9050919050565b7f44657374696e61746172696f206e6f6e2076616c69646f0000000000000000005f82015250565b5f61139f601783610ca7565b91506113aa8261136b565b602082019050919050565b5f6020820190508181035f8301526113cc81611393565b905091905056fea26474726f6e582212209cf4082bcc911698f23ae65412f9dc4cdb9d6860fc76b76020a824e88b7f86b164736f6c63430008170033",
  "source": "// SPDX-License-Identifier: MIT\npragma solidity ^0.8.18;\n\ninterface ITRC20 {\n    function totalSupply() external view returns (uint256);\n    function balanceOf(address account) external view returns (uint256);\n    function transfer(address recipient, uint256 amount) external returns (bool);\n    function allowance(address owner, address spender) external view returns (uint256);\n    function approve(address spender, uint256 amount) external returns (bool);\n    function transferFrom(address sender, address recipient, uint256 amount) external returns (bool);\n    event Transfer(address indexed from, address indexed to, uint256 value);\n    event Approval(address indexed owner, address indexed spender, uint256 value);\n}\n\ncontract USDT is ITRC20 {\n    string public constant name = \"Tether USD\";\n    string public constant symbol = \"USDT\";\n    uint8 public constant decimals = 6;\n    uint256 private _totalSupply;\n    address private immutable _owner;\n    mapping(address => uint256) private _balances;\n    mapping(address => mapping(address => uint256)) private _allowances;\n\n    event TokensBurned(uint256 amount);\n\n    constructor(uint256 initialSupply) {\n        _owner = msg.sender;\n        _totalSupply = initialSupply * (10 ** uint256(decimals));\n        _balances[_owner] = _totalSupply;\n        emit Transfer(address(0), _owner, _totalSupply);\n    }\n\n    modifier onlyOwner() {\n        require(msg.sender == _owner, \"Solo l'amministratore puo eseguire questa operazione\");\n        _;\n    }\n\n    function totalSupply() external view override returns (uint256) {\n        return _totalSupply;\n    }\n\n    function balanceOf(address account) external view override returns (uint256) {\n        return _balances[account];\n    }\n\n    function transfer(address recipient, uint256 amount) external override returns (bool) {\n        require(recipient != address(0), \"Destinatario non valido\");\n        require(_balances[msg.sender] >= amount, \"Saldo insufficiente\");\n        _balances[msg.sender] -= amount;\n        _balances[recipient] += amount;\n        emit Transfer(msg.sender, recipient, amount);\n        return true;\n    }\n\n    function allowance(address owner, address spender) external view override returns (uint256) {\n        return _allowances[owner][spender];\n    }\n\n    function approve(address spender, uint256 amount) external override returns (bool) {\n        require(spender != address(0), \"Spender non valido\");\n        _allowances[msg.sender][spender] = amount;\n        emit Approval(msg.sender, spender, amount);\n        return true;\n    }\n\n    function transferFrom(address sender, address recipient, uint256 amount) external override returns (bool) {\n        require(sender != address(0) && recipient != address(0), \"Indirizzo non valido\");\n        require(_balances[sender] >= amount, \"Saldo insufficiente\");\n        require(_allowances[sender][msg.sender] >= amount, \"Spesa non autorizzata\");\n        _balances[sender] -= amount;\n        _balances[recipient] += amount;\n        _allowances[sender][msg.sender] -= amount;\n        emit Transfer(sender, recipient, amount);\n        return true;\n    }\n\n    function burn(uint256 amount) external onlyOwner {\n        require(amount > 0, \"Devi bruciare almeno 1 token\");\n        require(_balances[_owner] >= amount, \"Token insufficienti per la distruzione\");\n        _balances[_owner] -= amount;\n        _totalSupply -= amount;\n        emit TokensBurned(amount);\n    }\n}\n\n",
  "sourcePath": "/Users/dott.gallo/nuovo-token-tron/contracts/contracts/USDT.sol",
  "compiler": {
    "name": "solc",
    "version": "0.8.23+commit.8ed33446.Emscripten.clang"
  },
  "schemaVersion": "2.0.1",
  "updatedAt": "2025-06-15T11:36:27.295Z"
}